:100000000C9461000C9489000C9489000C94890074
:100010000C9489000C9489000C9489000C9489003C
:100020000C9489000C9489000C9489000C9489002C
:100030000C9489000C9489000C9489000C9489001C
:100040000C9430040C9489000C94FE030C94D80397
:100050000C9489000C9489000C9489000C948900FC
:100060000C9489000C9489005A7375744574686502
:10007000726E65745544503A3A626567696E5061B4
:10008000636B657428636F6E73742063686172209C
:100090002A686F73742C2075696E7431365F742012
:1000A000706F7274293B206973206E6F74207375B2
:1000B00070706F727465642120536F7272792100C1
:1000C0007A0411241FBECFEFD8E0DEBFCDBF11E010
:1000D000A0E0B1E0EAECF2E102C005900D92AE348E
:1000E000B107D9F722E0AEE4B1E001C01D92A63419
:1000F000B207E1F710E0C1E6D0E004C02197FE01AD
:100100000E947806C036D107C9F70E94FC040C94FF
:1001100063090C940000AF92BF92CF92DF92EF92EE
:10012000FF920F931F93CF93DF936C017B018B01A1
:10013000040F151FEB015E01AE18BF08C017D107F1
:1001400059F06991D601ED91FC910190F081E02D7B
:10015000C6010995892B79F7C501DF91CF911F91D0
:100160000F91FF90EF90DF90CF90BF90AF900895E8
:10017000FC01538D448D252F30E0842F90E0821BAD
:10018000930B541710F0CF96089501970895FC0132
:10019000918D828D981761F0A28DAE0FBF2FB11D8A
:1001A0005D968C91928D9F5F9F73928F90E00895E2
:1001B0008FEF9FEF0895FC01918D828D981731F09C
:1001C000828DE80FF11D858D90E008958FEF9FEFF0
:1001D0000895FC01918D228D892F90E0805C9F4FC6
:1001E000821B91098F739927089581E691E00E94FF
:1001F000E90021E0892B09F420E0822F089580E0B6
:1002000090E0892B29F00E94F50081110C940000E8
:100210000895FC01A48DA80FB92FB11DA35ABF4F9B
:100220002C91848D90E001968F739927848FA689F5
:10023000B7892C93A089B1898C91837080648C9349
:10024000938D848D981306C00288F389E02D8081F8
:100250008F7D80830895EF92FF920F931F93CF932A
:10026000DF93EC0181E0888F9B8D8C8D98131AC0F1
:10027000E889F989808185FF15C09FB7F894EE89D8
:10028000FF896083E889F989808183708064808335
:100290009FBF81E090E0DF91CF911F910F91FF9080
:1002A000EF900895F62E0B8D10E00F5F1F4F0F7328
:1002B0001127E02E8C8D8E110CC00FB607FCFACFE3
:1002C000E889F989808185FFF5CFCE010E94090177
:1002D000F1CFEB8DEC0FFD2FF11DE35AFF4FF082B4
:1002E0009FB7F8940B8FEA89FB8980818062CFCF1A
:1002F000CF93DF93EC01888D8823B9F0AA89BB895D
:10030000E889F9898C9185FD03C0808186FD0DC047
:100310000FB607FCF7CF8C9185FFF2CF808185FF68
:10032000EDCFCE010E940901E9CFDF91CF91089571
:1003300081E0089587E08CBF95EE9BBF1ABE8CBF0D
:1003400086EE8BBF1ABE089590E080E0089597E096
:100350009CBF87EE8BBF2AB79CBF88EE8BBF8AB746
:10036000322F282F9CBF85EE8BBF8AB79CBF96EE9D
:100370009BBF9AB7892798278927821B930B481719
:10038000590708F4CA01A9014751584FFB01DB0185
:10039000A80FB91FEA17FB0739F05CBF4BBF6AB75C
:1003A00061934F5F5F4FF6CF280F391F47E04CBF77
:1003B00057EE5BBF3ABF4CBF38EE3BBF2ABF089534
:1003C000CF93DF931F92CDB7DEB7DC01ED91FC91A7
:1003D000028CF38DE02D41E050E0BE016F5F7F4F56
:1003E00009951816190634F4898190E00F90DF9171
:1003F000CF9108958FEF9FEFF9CFFC0197E09CBF5D
:1004000085EE8BBF8AB79CBF26EE2BBF6AB79CBF19
:1004100027EE2BBF2AB79CBF98EE9BBF3AB71CBEF6
:1004200090E19BBF9AB71CBE4FE04BBF4AB71CBEC2
:100430005EE05BBF5AB71CBE7DE07BBF7AB7708BB6
:10044000518B428B938B1CBE91E19BBF4AB71CBE64
:1004500092E19BBF9AB7542F492F558B448B982F0D
:10046000862F232732272327821B930B08951CBE38
:1004700083E18BBF8AB71CBE94E19BBF9AB78927E3
:1004800098278927FB019C012B5E3F4FDB01A40FBE
:10049000B51FEA17FB0739F061913CBF2BBF6ABF5C
:1004A0002F5F3F4FF6CF480F591F1CBE83E18BBF14
:1004B0005ABF1CBE84E18BBF4ABF90E080E0089524
:1004C000CF93DF931F92CDB7DEB76983DC01ED9147
:1004D000FC910280F381E02D41E050E0BE016F5FAE
:1004E0007F4F09950F90DF91CF9108951CBE1BBEE1
:1004F0008FEF8ABF1CBE1BBE82E08ABF90E080E007
:100500000895FB0132812381948185811CBE1BBE2D
:1005100061E06ABF1CBE6DE06BBF3ABF1CBE3EE02F
:100520003BBF2ABF1CBE2FE02BBF9ABF1CBE90E171
:100530009BBF8ABF1CBE81E18BBF5ABF1CBE82E13C
:100540008BBF4ABF81E090E008950895DC01ED91F2
:10055000FC91008CF18DE02D09941CBE8BE08BBFCB
:100560007ABF1CBE8CE08BBF6ABF1CBE1BBE83E083
:100570008ABF81E00895FC018489958908952EE35E
:1005800031E0FC0131832083FB014089518962897C
:100590007389FC0142835383648375830895DC016E
:1005A000ED91FC91028CF38DE02D099490E080E0B8
:1005B00008958F929F92AF92BF92EF92FF920F9306
:1005C0001F93CF93DF93CDB7DEB7A1970FB6F89403
:1005D000DEBF0FBECDBF7C01FA01CB0119A22230D4
:1005E00008F42AE08E010F5D1F4F822E912CB12C52
:1005F000A12CBF01A50194010E945606F901CA0170
:100600006A3074F5605DD8016E938D01232B242B25
:10061000252B79F790E080E0109789F0FD0101909B
:100620000020E9F73197AF014A1B5B0BD701ED9131
:10063000FC910280F381E02DB801C7010995A196D4
:100640000FB6F894DEBF0FBECDBFDF91CF911F91E3
:100650000F91FF90EF90BF90AF909F908F90089573
:10066000695CD1CFCF93DF93C8E6D0E0FE016491FF
:10067000662339F081E691E00E942B012196892BB7
:10068000A9F742E050E060E471E081E691E00E9469
:100690008B00989590E080E0DF91CF9108950F93C3
:1006A0001F93CF93DF9300D000D000D0CDB7DEB73B
:1006B0008C018EE391E09A8389838091210290914D
:1006C0002202A0912302B09124028B839C83AD83EC
:1006D000BE8347E554E0BE016F5F7F4F85E292E045
:1006E0000E948102F80101900020E9F73197AF01E3
:1006F000401B510BB80185E292E00E94370285E26F
:1007000092E00E94760226960FB6F894DEBF0FBEE6
:10071000CDBFDF91CF911F910F9108958F929F923E
:10072000AF92BF92CF92DF92EF92FF920F931F93FF
:10073000CF93DF937C01EB016C0182E0C80ED11CEA
:100740004701E5E08E0E911C10E000E0F6014191BA
:100750006F0150E070E060E02AE0CE010E94D90213
:100760005C01E881F9810190F081E02D6EE2CE011B
:1007700009958A0D9B1D080F191FC814D90431F75C
:10078000F701458150E070E060E02AE0CE010E9470
:10079000D902800F911FDF91CF911F910F91FF9090
:1007A000EF90DF90CF90BF90AF909F908F90089583
:1007B0001F920F920FB60F9211242F933F934F93D6
:1007C0005F936F937F938F939F93AF93BF93EF93B9
:1007D000FF9381E691E00E940901FF91EF91BF91A3
:1007E000AF919F918F917F916F915F914F913F91C9
:1007F0002F910F900FBE0F901F9018951F920F9280
:100800000FB60F9211242F938F939F93EF93FF9323
:10081000E0917101F09172018081E0917701F09196
:10082000780182FD1BC0908180917A018F5F8F7368
:1008300020917B01821741F0E0917A01F0E0EF59BD
:10084000FE4F958F80937A01FF91EF919F918F9149
:100850002F910F900FBE0F901F9018958081F4CFAD
:100860001F920F920FB60F9211242F933F938F93E5
:100870009F93AF93BF938091530190915401A091A6
:100880005501B09156013091520123E0230F2D37CD
:1008900058F50196A11DB11D20935201809353017B
:1008A00090935401A0935501B093560180914E014D
:1008B00090914F01A0915001B09151010196A11D5D
:1008C000B11D80934E0190934F01A0935001B093BE
:1008D0005101BF91AF919F918F913F912F910F90B7
:1008E0000FBE0F901F90189526E8230F0296A11DAA
:1008F000B11DD2CFE1E6F1E01382128248EE53E05F
:1009000060E070E0448355836683778384E091E000
:100910009183808385EC90E09587848784EC90E0D8
:100920009787868780EC90E0918B808B81EC90E0BC
:10093000938B828B82EC90E0958B848B86EC90E09D
:10094000978B868B118E128E138E148EEEEFF1E044
:100950008EE391E091838083128213821482158248
:10096000ECE0F2E09183808312821382148215827C
:10097000E4E0F2E091838083128213821482158274
:10098000E2E1F2E091838083128213821482158265
:10099000E8E1F2E09183808312821382148215824F
:1009A000E0E4F2E091838083128213821482158244
:1009B000E5E2F2E0138212824483558366837783F3
:1009C00026E131E03183208397878687108A118A58
:1009D000128A138A24E0208FEFE1F2E09183808372
:1009E00080EC828388EA838385EB848385E085833A
:1009F00083E080931E020895CF93DF93CDB7DEB7D7
:100A0000C054D1090FB6F894DEBF0FBECDBF7894A5
:100A100084B5826084BD84B5816084BD85B5826003
:100A200085BD85B5816085BD80916E0081608093B4
:100A30006E0010928100809181008260809381001D
:100A4000809181008160809381008091800081602D
:100A5000809380008091B10084608093B100809188
:100A6000B00081608093B00080917A0084608093B0
:100A70007A0080917A00826080937A0080917A0077
:100A8000816080937A0080917A00806880937A00F8
:100A90001092C100E0917101F091720182E08083B7
:100AA000E0916D01F0916E011082E0916F01F09183
:100AB000700180E1808310927901E0917501F091DD
:100AC000760186E08083E0917301F091740180816A
:100AD00080618083E0917301F0917401808188606E
:100AE0008083E0917301F09174018081806880833C
:100AF000E0917301F091740180818F7D808388E0A3
:100B00008093060280930702809308028093090273
:100B10006EEA78E085E292E00E94AD0245E0942E14
:100B200050ECD52E03E411E0CE0101967C0164E087
:100B3000862E20E4C22E30E0A32E30E0B32E83E0D8
:100B4000782E92E0692E5524539492B383B389276B
:100B50009827892720915F01309160012817390774
:100B600081F192B383B389279827892790936001F5
:100B700080935F011F929F9399279F938F931F925A
:100B80005F9280911E021F928F931F92DF921F939C
:100B90000F931F92CF92FF92EF920E947E06C701A1
:100BA0000E944F030FB6F894DEBF0FBECDBFA11455
:100BB000B10459F20E94F500882309F20E94000056
:100BC000B8CF94B385B389279827892720915D01F1
:100BD00030915E012817390789F094B385B38927CE
:100BE0009827892790935E0180935D011F929F93C0
:100BF00099279F938F931F926F92C3CF96B387B31A
:100C000089279827892720915B0130915C0128175B
:100C1000390789F096B387B3892798278927909356
:100C20005C0180935B011F929F9399279F938F9301
:100C30001F927F92A6CF98B389B3892798278927D7
:100C40002091590130915A012817390789F098B33A
:100C500089B389279827892790935A01809359014E
:100C60001F929F9399279F938F931F928F9289CF63
:100C70009AB38BB389279827892720915701309100
:100C800058012817390709F492CF9AB38BB38927F3
:100C90009827892790935801809357011F929F931B
:100CA00099279F938F931F929F926BCFA1E21A2E49
:100CB000AA1BBB1BFD010DC0AA1FBB1FEE1FFF1F00
:100CC000A217B307E407F50720F0A21BB30BE40B50
:100CD000F50B661F771F881F991F1A9469F7609597
:100CE0007095809590959B01AC01BD01CF01089551
:100CF000EE0FFF1F0590F491E02D0994AEE0B0E0F7
:100D0000E4E8F6E00C943A090D891E898F89988DE4
:100D100026E02C831A83098397FF02C080E090E8C5
:100D200001979E838D83AE01455E5F4F698D7A8DFD
:100D3000CE0101960E94AE064D815E8157FD0AC02C
:100D40002F813885421753070CF49A01020F131FA5
:100D5000F80110822E96E4E00C945609ABE0B0E066
:100D6000E4EBF6E00C942C097C013B018A01FC01C8
:100D700017821682838181FFC8C1CE0101965C0172
:100D8000F7019381F30193FD859193FF81913F01D9
:100D9000882309F453C1853239F493FD859193FF7B
:100DA00081913F01853229F4B70190E00E949E08AD
:100DB000E7CF912C212C312CFFE1F31538F08B3249
:100DC00011F190F4803209F1833229F137FC3CC0F3
:100DD00020ED280F2A3050F536FE20C08AE0989E7C
:100DE000200D1124922E06C08D3291F0803371F7C0
:100DF000689430F8F30193FD859193FF81913F0151
:100E00008111DACF21C0689431F8689432F8F2CFBA
:100E1000689433F8EFCF689434F8ECCFEAE02E9E74
:100E2000200D1124222E689435F8E4CF8E3229F457
:100E300036FC04C1689436F8DDCF8C3619F468941A
:100E400037F8D8CF8836B1F2982F9F7D95549330DC
:100E5000E0F08336A1F18337C1F1833509F063C037
:100E60002801F2E04F0E511CF801C080D180692D9D
:100E700070E036FC02C06FEF7FEFC6010E94880869
:100E80004C01689437F882010AC00C5F1F4FFFE3E2
:100E9000F98388248394912C6501E89437F833FE14
:100EA0002DC0522C8114910471F5552009F468CF9E
:100EB000B70180E290E00E949E085A94F6CFF801B4
:100EC000808189830E5F1F4FE4CF2801F2E04F0E2F
:100ED000511CF801C080D180692D70E036FC02C041
:100EE0006FEF7FEFC6010E9493084C018201D5CFBE
:100EF000B70180E290E00E949E082A942814190409
:100F000009F0B0F7CECFF60137FC859137FE81911D
:100F10006F01B70190E00E949E0851105A94F1E0D1
:100F20008F1A9108BFCF843619F0893609F077C03F
:100F3000F80137FE6BC060817181828193810C5F03
:100F40001F4FF32DFF763F2E97FF09C09095809598
:100F5000709561957F4F8F4F9F4F689437F82AE0C7
:100F600030E0A5010E94CE08C82ECA188C2C432C54
:100F700036FE0CC0E89440F8C91440F434FE05C0B5
:100F800032FC03C0F32DFE7E4F2E892C44FE95C00B
:100F9000FE01EC0DF11D8081803309F087C0242D06
:100FA000297E422E842D8870582E43FC95C040FE29
:100FB0008FC09C2C821418F42C0C922C981844FE90
:100FC00091C0B70180E390E00E949E0842FE09C0F4
:100FD00088E790E041FE02C088E590E0B7010E94FA
:100FE0009E08C91408F48AC0CA94D12C9FEFC91A6C
:100FF000D90ACA0CDB1CF60182916F01B70190E09F
:101000000E949E08AC14BD04B1F74FCF608171817E
:10101000072E000C880B990B0E5F1F4F92CFD32C1D
:10102000E894D4F82AE030E0853739F1232D297F80
:10103000D22E8F3601F148F48835A9F0F701868168
:1010400097812B96E2E10C944809803749F0883764
:10105000A9F7D4FE02C06894D2F820E130E00DC0B8
:101060006894D4F8F6CF34FE03C0822F8660D82E61
:1010700020E132E002C028E030E0F801D7FE0FC0E6
:1010800060817181828193810C5F1F4FA5010E9455
:10109000CE08C82ECA183D2CE89437F867CF608177
:1010A000718190E080E00E5F1F4FF0CF42FC02C0E4
:1010B000839478CF8394839475CF842D867809F4B4
:1010C00071CFF6CFB70180E290E00E949E08839432
:1010D0008214C0F3512C73CF522C5818821408F488
:1010E0006ECFF8CF842D867809F47BCF8BE241FE5A
:1010F00080E247FC8DE2B70190E071CFB70180E359
:1011000090E00E949E089A946CCF8FEF9FEF99CF4A
:10111000FC010590615070400110D8F780959095C2
:101120008E0F9F1F0895FC016150704001900110C7
:10113000D8F7809590958E0F9F1F08950F931F935A
:10114000CF93DF93182F092FEB018B8181FD09C00D
:101150001FEF0FEF812F902FDF91CF911F910F91F4
:10116000089582FF14C02E813F818C819D812817B4
:1011700039073CF4E881F981CF010196998388838E
:1011800010838E819F8101969F838E83E3CFE885B4
:10119000F985812F0995892BA1F3DACFFA01AA27C6
:1011A000283051F1203181F1E8946F936E7F6E5FAA
:1011B0007F4F8F4F9F4FAF4FB1E03ED0B4E03CD058
:1011C000670F781F891F9A1FA11D680F791F8A1F3B
:1011D000911DA11D6A0F711D811D911DA11D20D0A2
:1011E00009F468943F912AE0269F11243019305D5C
:1011F0003193DEF6CF010895462F4770405D41934D
:10120000B3E00FD0C9F7F6CF462F4F70405D4A3399
:1012100018F0495D31FD4052419302D0A9F7EACF61
:10122000B4E0A6959795879577956795BA95C9F790
:1012300000976105710508959B01AC010A2E069483
:101240005795479537952795BA95C9F7620F731F3C
:10125000841F951FA01D08952F923F924F925F9279
:101260006F927F928F929F92AF92BF92CF92DF92B6
:10127000EF92FF920F931F93CF93DF93CDB7DEB71B
:10128000CA1BDB0B0FB6F894DEBF0FBECDBF0994AF
:101290002A88398848885F846E847D848C849B8406
:1012A000AA84B984C884DF80EE80FD800C811B8114
:1012B000AA81B981CE0FD11D0FB6F894DEBF0FBE43
:0A12C000CDBFED010895F894FFCFB3
:1012CA00000000002B018B00B8007801E900C7007C
:1012DA00DB000000000060023702D6029A01A60273
:1012EA00E001A401AD02A502810232037602FD01EA
:1012FA00A701CF02BF02BB029801000000008E03C3
:0E130A000D0A00256325632563256325630016
:00000001FF
