:100000000C9461000C9489000C9489000C94890074
:100010000C9489000C9489000C9489000C9489003C
:100020000C9489000C9489000C9489000C9489002C
:100030000C9489000C9489000C9489000C9489001C
:100040000C94FA050C9489000C94C8050C94A20534
:100050000C9489000C9489000C9489000C948900FC
:100060000C9489000C9489005A7375744574686502
:10007000726E65745544503A3A626567696E5061B4
:10008000636B657428636F6E73742063686172209C
:100090002A686F73742C2075696E7431365F742012
:1000A000706F7274293B206973206E6F74207375B2
:1000B00070706F727465642120536F7272792100C1
:1000C000440611241FBECFEFD8E0DEBFCDBF12E043
:1000D000A0E0B1E0E4EFFAE102C005900D92A43691
:1000E000B107D9F723E0A4E6B2E001C01D92A7361C
:1000F000B207E1F710E0C1E6D0E004C02197FE01AD
:100100000E946809C036D107C9F70E94C3060C9443
:10011000780D0C940000AF92BF92CF92DF92EF92D5
:10012000FF920F931F93CF93DF936C017B018B01A1
:10013000040F151FEB015E01AE18BF08C017D107F1
:1001400059F06991D601ED91FC910190F081E02D7B
:10015000C6010995892B79F7C501DF91CF911F91D0
:100160000F91FF90EF90DF90CF90BF90AF900895E8
:10017000FC01538D448D252F30E0842F90E0821BAD
:10018000930B541710F0CF96089501970895FC0132
:10019000918D828D981761F0A28DAE0FBF2FB11D8A
:1001A0005D968C91928D9F5F9F73928F90E00895E2
:1001B0008FEF9FEF0895FC01918D828D981731F09C
:1001C000828DE80FF11D858D90E008958FEF9FEFF0
:1001D0000895FC01918D228D892F90E0805C9F4FC6
:1001E000821B91098F73992708958FE792E00E94EF
:1001F000E90021E0892B09F420E0822F089580E0B6
:1002000090E0892B29F00E94F50081110C940000E8
:100210000895FC01A48DA80FB92FB11DA35ABF4F9B
:100220002C91848D90E001968F739927848FA689F5
:10023000B7892C93A089B1898C91837080648C9349
:10024000938D848D981306C00288F389E02D8081F8
:100250008F7D80830895EF92FF920F931F93CF932A
:10026000DF93EC0181E0888F9B8D8C8D98131AC0F1
:10027000E889F989808185FF15C09FB7F894EE89D8
:10028000FF896083E889F989808183708064808335
:100290009FBF81E090E0DF91CF911F910F91FF9080
:1002A000EF900895F62E0B8D10E00F5F1F4F0F7328
:1002B0001127E02E8C8D8E110CC00FB607FCFACFE3
:1002C000E889F989808185FFF5CFCE010E94090177
:1002D000F1CFEB8DEC0FFD2FF11DE35AFF4FF082B4
:1002E0009FB7F8940B8FEA89FB8980818062CFCF1A
:1002F000CF93DF93EC01888D8823B9F0AA89BB895D
:10030000E889F9898C9185FD03C0808186FD0DC047
:100310000FB607FCF7CF8C9185FFF2CF808185FF68
:10032000EDCFCE010E940901E9CFDF91CF91089571
:1003300066B747B728B739B770E090E080E0962FEE
:10034000882777276627842B632B722B089581E0FB
:10035000089587E08CBF95EE9BBF1ABE8CBF86EEDA
:100360008BBF1ABE089590E080E0089597E09CBF8F
:1003700087EE8BBF2AB79CBF88EE8BBF8AB7322F20
:10038000282F9CBF85EE8BBF8AB79CBF96EE9BBF84
:100390009AB7892798278927821B930B48175907F3
:1003A00008F4CA01A9014751584FFB01DB01A80F0E
:1003B000B91FEA17FB0739F05CBF4BBF6AB76193FF
:1003C0004F5F5F4FF6CF280F391F47E04CBF57EE06
:1003D0005BBF3ABF4CBF38EE3BBF2ABF0895CF93F7
:1003E000DF931F92CDB7DEB7DC01ED91FC91028C5B
:1003F000F38DE02D41E050E0BE016F5F7F4F099526
:100400001816190634F4898190E00F90DF91CF918E
:1004100008958FEF9FEFF9CFFC0197E09CBF85EE29
:100420008BBF8AB79CBF26EE2BBF6AB79CBF27EE57
:100430002BBF2AB79CBF98EE9BBF3AB71CBE90E17A
:100440009BBF9AB71CBE4FE04BBF4AB71CBE5EE0D5
:100450005BBF5AB71CBE7DE07BBF7AB7708B518BF8
:10046000428B938B1CBE91E19BBF4AB71CBE92E1AD
:100470009BBF9AB7542F492F558B448B982F862FAB
:10048000232732272327821B930B08951CBE83E169
:100490008BBF8AB71CBE94E19BBF9AB78927982768
:1004A0008927FB019C012B5E3F4FDB01A40FB51F89
:1004B000EA17FB0739F061913CBF2BBF6ABF2F5F82
:1004C0003F4FF6CF480F591F1CBE83E18BBF5ABF69
:1004D0001CBE84E18BBF4ABF90E080E00895CF93BB
:1004E000DF931F92CDB7DEB76983DC01ED91FC91FC
:1004F0000280F381E02D41E050E0BE016F5F7F4F4D
:1005000009950F90DF91CF9108951CBE1BBE8FEF10
:100510008ABF1CBE1BBE82E08ABF90E080E00895C7
:10052000FB0132812381948185811CBE1BBE61E069
:100530006ABF1CBE6DE06BBF3ABF1CBE3EE03BBF56
:100540002ABF1CBE2FE02BBF9ABF1CBE90E19BBFF1
:100550008ABF1CBE81E18BBF5ABF1CBE82E18BBF2C
:100560004ABF81E090E008950895DC01ED91FC918F
:10057000008CF18DE02D09941CBE8BE08BBF7ABFFF
:100580001CBE8CE08BBF6ABF1CBE1BBE83E08ABF53
:1005900081E00895FC0184899589089521E631E080
:1005A000FC0131832083FB01408951896289738971
:1005B000FC0142835383648375830895DC01ED91CC
:1005C000FC91028CF38DE02D099490E080E0089579
:1005D000813059F0823061F0833069F0843071F0FD
:1005E000853079F090E080E0089583E691E0089509
:1005F0008FE691E0089588E791E008958DE891E015
:1006000008958EE791E00895813059F0823061F0CD
:10061000833069F0843071F0853079F090E080E0CB
:10062000089589E991E0089580EA91E0089587EAC4
:1006300091E0089584EB91E008958DEA91E00895AA
:10064000FB0101900020E9F73197AF01461B570BE2
:10065000DC01ED91FC910280F381E02D09948F92F1
:100660009F92AF92BF92EF92FF920F931F93CF93FF
:10067000DF93CDB7DEB7A1970FB6F894DEBF0FBEFC
:10068000CDBF7C01FA01CB0119A2223008F42AE087
:100690008E010F5D1F4F822E912CB12CA12CBF011A
:1006A000A50194010E944609F901CA016A300CF5BE
:1006B000605DD8016E938D01232B242B252B79F7B8
:1006C00090E080E0109721F0BD01C7010E94200357
:1006D000A1960FB6F894DEBF0FBECDBFDF91CF91CC
:1006E0001F910F91FF90EF90BF90AF909F908F90D0
:1006F0000895695CDECF8F929F92AF92BF92CF92A6
:10070000DF92EF92FF920F931F93CF93DF937C01C1
:10071000EB016C0182E0C80ED11C4701E5E08E0EB2
:10072000911C10E000E0F60141916F0150E070E093
:1007300060E02AE0CE010E942F035C01E881F9818C
:100740000190F081E02D6EE2CE0109958A0D9B1D8E
:10075000080F191FC814D90431F7F701458150E07B
:1007600070E060E02AE0CE010E942F03800F911F0D
:10077000DF91CF911F910F91FF90EF90DF90CF907D
:10078000BF90AF909F908F900895009729F0BC0183
:100790008FE792E00C94200390E080E00895CF93DF
:1007A000DF93BC018FE792E00E942003EC016AEB2B
:1007B00071E08FE792E00E9420038C0F9D1FDF9174
:1007C000CF910895CF93DF93C8E6D0E0FE01649106
:1007D000662339F08FE792E00E942B012196892B46
:1007E000A9F76AEB71E08FE792E00E9420039895E9
:1007F00090E080E0DF91CF910895EF92FF920F9308
:100800001F93CF93DF9300D000D000D0CDB7DEB7D9
:100810008C0181E691E09A83898380913E039091D7
:100820003F03A0914003B09141038B839C83AD8330
:10083000BE8347E554E0BE016F5F7F4F82E493E0E3
:100840000E949002F80101900020E9F73197AF0172
:10085000401B510BB80182E493E00E94460282E4FF
:1008600093E00E948502F801E380F4808DEB91E033
:100870000E94C503F80181810E9404030E94C50300
:100880008DEC91E00E94C503F80182810E94E8028C
:100890000E94C5038AED91E00E94C503A70170E0A4
:1008A00060E02AE08FE792E00E942F036AEB71E09C
:1008B0008FE792E00E9420036AEB71E08FE792E0FD
:1008C0000E94200326960FB6F894DEBF0FBECDBF60
:1008D000DF91CF911F910F91FF90EF900895CF93EB
:1008E000DF9300D000D000D0CDB7DEB786E0EDE1D9
:1008F000F1E0DE01119601900D928A95E1F786E014
:1009000090E00E946E09FE013196DC01AE01495F64
:100910005F4FE417F50719F021912D93FACF269632
:100920000FB6F894DEBF0FBECDBFDF91CF91089513
:100930003F924F925F926F927F928F929F92AF926F
:10094000BF92CF92DF92EF92FF920F931F93CF93BC
:10095000DF9300D000D0CDB7DEB77C0180E490E01B
:100960000E946E098C010E946F049C838B830E94FD
:100970006F0450E040E030E020E062E070E03B01D6
:10098000AB81BC816A1A7B0A6EEF362EF7010190AB
:100990000020E9F73197EE19FF094E175F0708F0BD
:1009A000BAC0F701E40FF51F60816F3F09F0AAC0DC
:1009B00061816E3F19F54801820E931EEB81FC8127
:1009C0005901AE1ABF0A95012E0F3F1FAB81BC81A2
:1009D0000D900020E9F7BD0161507109AB81BC8128
:1009E0006A1B7B0B6F01CA1ADB0AC616D70608F012
:1009F00084C02191D4012D934D01E5CF6F3FB1F11A
:100A0000BC015A01BFEFAB1ABB0AFC0101900020E8
:100A1000E9F73197E81BF90BDB01A81BB90BAE17FF
:100A2000BF0708F076C0FB01A191BF01F801E20FFA
:100A3000F31FA083D701AA0DBB1DF9013196E00F6A
:100A4000F11F2E193F096901C41AD50A2D014E184C
:100A50005F089D9096012A0F3B1F0F2EFEEF8F2EF1
:100A6000F02D981409F44CC09192F0CF9A838983A9
:100A7000FC0101900020E9F7BF0161507109681B7A
:100A8000790BE981FA81E81BF90BE617F70798F56E
:100A9000A981BA816D91BA83A983F801E20FF31F8E
:100AA00060835901BFEFAB1ABB0AA00EB11EEB81E8
:100AB000FC814301820E931EAB81BC810D9000200E
:100AC000E9F7BD01615071092B813C81621B730BF9
:100AD00094012E0F3F1F6F01AB81BC81CA1ADB0A44
:100AE000C616D70628F42191D5012D935D01E4CFD8
:100AF000F5013082BDCF4E5F5F4F4F5F5F4F46CFF6
:100B0000908283CFF801E20FF31F60832F5F3F4F86
:100B1000F4CFA201F2CFC8010F900F900F900F9069
:100B2000DF91CF911F910F91FF90EF90DF90CF90C9
:100B3000BF90AF909F908F907F906F905F904F90FD
:100B40003F9008951F920F920FB60F9211242F938A
:100B50003F934F935F936F937F938F939F93AF9345
:100B6000BF93EF93FF938FE792E00E940901FF91FB
:100B7000EF91BF91AF919F918F917F916F915F9115
:100B80004F913F912F910F900FBE0F901F9018958E
:100B90001F920F920FB60F9211242F938F939F9352
:100BA000EF93FF93E0918F02F09190028081E091AA
:100BB0009502F091960282FD1BC09081809198026F
:100BC0008F5F8F7320919902821741F0E091980214
:100BD000F0E0E158FD4F958F80939802FF91EF91DF
:100BE0009F918F912F910F900FBE0F901F9018958E
:100BF0008081F4CF1F920F920FB60F9211242F9382
:100C00003F938F939F93AF93BF938091690290918D
:100C10006A02A0916B02B0916C023091680223E0ED
:100C2000230F2D3758F50196A11DB11D20936802A1
:100C30008093690290936A02A0936B02B0936C0256
:100C40008091640290916502A0916602B091670262
:100C50000196A11DB11D8093640290936502A0933B
:100C60006602B0936702BF91AF919F918F913F91C0
:100C70002F910F900FBE0F901F90189526E8230F0D
:100C80000296A11DB11DD2CFEFE7F2E013821282CE
:100C900048EE53E060E070E04483558366837783D9
:100CA00087E291E09183808385EC90E0958784874B
:100CB00084EC90E09787868780EC90E0918B808B26
:100CC00081EC90E0938B828B82EC90E0958B848B0F
:100CD00086EC90E0978B868B118E128E138E148E7D
:100CE000ECE1F3E081E691E091838083128213824C
:100CF00014821582EAE2F3E09183808312821382E8
:100D000014821582E2E2F3E09183808312821382DF
:100D100014821582E0E3F3E09183808312821382D0
:100D200014821582E6E3F3E09183808312821382BA
:100D300014821582EDE5F3E09183808312821382A1
:100D400014821582E2E4F3E0138212824483558315
:100D50006683778329E331E0318320839787868711
:100D6000108A118A128A138A24E0208FECE3F3E0C0
:100D70009183808380EC828388EA838385EB8483FC
:100D800085E085830895CF93DF93CDB7DEB7C65452
:100D9000D1090FB6F894DEBF0FBECDBF789484B5ED
:100DA000826084BD84B5816084BD85B5826085BD67
:100DB00085B5816085BD80916E00816080936E00F5
:100DC00010928100809181008260809381008091E7
:100DD0008100816080938100809180008160809398
:100DE00080008091B10084608093B1008091B00058
:100DF00081608093B00080917A00846080937A0053
:100E000080917A00826080937A0080917A0081607C
:100E100080937A0080917A00806880937A001092A3
:100E2000C100E0918F02F091900282E08083E09116
:100E30008B02F0918C021082E0918D02F0918E0273
:100E400080E1808310929702E0919302F0919402E6
:100E500086E08083E0919102F0919202808180612E
:100E60008083E0919102F09192028081886080837A
:100E7000E0919102F0919202808180688083E091FC
:100E80009102F091920280818F7D808388E080932F
:100E9000240380932503809326038093270365E032
:100EA0007DE082E493E00E94BC020E94980160937E
:100EB0006F0270937002809371029093720210928D
:100EC0007E0210927D026E0121E4C20ED11C53E419
:100ED000E52E52E0F52E8E010F5F1F4F43E0642E8A
:100EE000712C8EEF382E95E0292E23E0522E30EC17
:100EF000432E80917D0290917E020097D9F582E188
:100F000091E00E9498044C0181E691E09A838983E4
:100F100080913E0390913F03A0914003B091410323
:100F20008B839C83AD83BE8347E554E0B80182E4A4
:100F300093E00E94900240E450E0B40182E493E028
:100F40000E94460282E493E00E94850286EE91E0D0
:100F50000E94CF0370927E0260927D02E0E0F0E09A
:100F6000EF2B39F20E94F500882309F4BACF0E94D2
:100F70000000B4CF8130910551F589E091E00E94E5
:100F800098044C01E1E6F1E0FA83E98380913E03A5
:100F900090913F03A0914003B09141038B839C83C8
:100FA000AD83BE8347E554E0B80182E493E00E943C
:100FB000900240E450E0B40182E493E00E944602D3
:100FC00082E493E00E94850283E092E0C1CF823008
:100FD000910551F580E091E00E9498044C0181E672
:100FE00091E09A83898380913E0390913F03A09181
:100FF0004003B09141038B839C83AD83BE8347E55F
:1010000054E0B80182E493E00E94900240E450E092
:10101000B40182E493E00E94460282E493E00E94DD
:10102000850282E292E094CF039709F097CF92B3C2
:1010300083B389279827892720917B0230917C02EE
:1010400028173907A1F092B383B3892798278927F6
:1010500090937C0280937B021F923F921F929F93FA
:1010600099279F938F931F9281E08F933EC094B3F3
:1010700085B38927982789272091790230917A02B0
:101080002817390799F094B385B3892798278927BA
:1010900090937A02809379021F923F921F929F93BE
:1010A00099279F938F931F9282E0DFCF96B387B3E8
:1010B000892798278927209177023091780228176D
:1010C000390709F4A4C096B387B3892798278927DD
:1010D00090937802809377021F923F921F929F9382
:1010E00099279F938F931F925F921F925F921F92F7
:1010F0004F92FF92EF921F9280E48F931F930F9372
:101100000E94930AC8010E94FD030FB6F894DEBF47
:101110000FBECDBF82E493E00E940C02892BF1F157
:10112000F60126E011922A95E9F746E050E0B60173
:1011300082E493E00E94B601F6018081803C71F563
:101140008380948080E592E00E94C503F60181814E
:101150000E9404030E94C5038DEC91E00E94C50328
:10116000F60182810E94E8020E94C5038AED91E0A7
:101170000E94C503A40170E060E02AE08FE792E0DE
:101180000E942F036AEB71E08FE792E00E94200338
:101190006AEB71E08FE792E00E9420030E949801C1
:1011A00080906F0290907002A0907102B0907202D5
:1011B000681979098A099B0960337547810591058A
:1011C00060F080916E02882341F010926E0281E0FF
:1011D00090E090937E0280937D020E9498016819AE
:1011E00079098A099B09603375478105910508F4DF
:1011F000B5CE80916D02882309F4B0CE10926D02B5
:1012000082E090E090937E0280937D02A7CE98B317
:1012100089B3892798278927209175023091760212
:101220002817390799F098B389B389279827892710
:1012300090937602809375021F923F921F929F9324
:1012400099279F938F931F9284E00FCF9AB38BB30C
:1012500089279827892720917302309174022817D3
:10126000390709F457CF9AB38BB389279827892771
:1012700090937402809373021F923F921F929F93E8
:1012800099279F938F931F922F922FCFA1E21A2E0F
:10129000AA1BBB1BFD010DC0AA1FBB1FEE1FFF1F1A
:1012A000A217B307E407F50720F0A21BB30BE40B6A
:1012B000F50B661F771F881F991F1A9469F76095B1
:1012C0007095809590959B01AC01BD01CF0108956B
:1012D000EE0FFF1F0590F491E02D09940F931F93DB
:1012E000CF93DF938230910510F482E090E0E0919B
:1012F0006503F091660330E020E0B0E0A0E03097B5
:1013000099F42115310509F44AC0281B390B243002
:101310003105D8F58A819B816115710589F1FB0141
:1013200093838283FE0111C0408151810281138128
:1013300048175907E0F04817590799F4109761F0DA
:1013400012960C93129713961C933296CF01DF914D
:10135000CF911F910F910895009365031093660339
:10136000F4CF2115310551F04217530738F0A90188
:10137000DB019A01BD01DF01F801C1CFEF01F9CF17
:101380009093660380936503CDCFFE01E20FF31FB8
:10139000819391932250310939832883D7CF2091AB
:1013A000630330916403232B41F4209119013091A0
:1013B0001A01309364032093630320911701309145
:1013C00018012115310541F42DB73EB740911B019D
:1013D00050911C01241B350BE0916303F0916403D1
:1013E000E217F307A0F42E1B3F0B2817390778F0FC
:1013F000AC014E5F5F4F2417350748F04E0F5F1F5B
:101400005093640340936303819391939FCFF0E0E3
:10141000E0E09CCFCF93DF930097E9F0FC01329797
:1014200013821282A0916503B0916603ED0130E052
:1014300020E01097A1F420813181820F931F209129
:101440006303309164032817390709F061C0F093F2
:101450006403E0936303DF91CF910895EA01CE170F
:10146000DF07E8F54A815B819E0141155105B1F71F
:10147000E901FB83EA8349915991C40FD51FEC1709
:10148000FD0761F4808191810296840F951FE90127
:1014900099838883828193819B838A83F0E0E0E053
:1014A00012968D919C9113970097B9F52D913C91CF
:1014B0001197CD010296820F931F20916303309103
:1014C00064032817390739F6309751F510926603EF
:1014D00010926503B0936403A0936303BCCFD383DE
:1014E000C28340815181840F951FC817D90761F4C9
:1014F0004E5F5F4F88819981480F591F5183408308
:101500008A819B81938382832115310509F0B0CFB5
:10151000F0936603E09365039ECFFD01DC01C0CF2D
:1015200013821282D7CFAEE0B0E0E9E9FAE00C9482
:101530004F0D0D891E898F89988D26E02C831A8383
:10154000098397FF02C080E090E801979E838D8316
:10155000AE01455E5F4F698D7A8DCE0101960E9486
:10156000C30A4D815E8157FD0AC02F81388542171D
:1015700053070CF49A01020F131FF80110822E96E4
:10158000E4E00C946B0DABE0B0E0E9ECFAE00C9415
:10159000410D7C013B018A01FC0117821682838187
:1015A00081FFC8C1CE0101965C01F7019381F3016F
:1015B00093FD859193FF81913F01882309F453C1E5
:1015C000853239F493FD859193FF81913F018532F6
:1015D00029F4B70190E00E94B30CE7CF912C212CA5
:1015E000312CFFE1F31538F08B3211F190F4803299
:1015F00009F1833229F137FC3CC020ED280F2A3055
:1016000050F536FE20C08AE0989E200D1124922EBF
:1016100006C08D3291F0803371F7689430F8F30191
:1016200093FD859193FF81913F018111DACF21C014
:10163000689431F8689432F8F2CF689433F8EFCFB9
:10164000689434F8ECCFEAE02E9E200D1124222E6F
:10165000689435F8E4CF8E3229F436FC04C16894DE
:1016600036F8DDCF8C3619F4689437F8D8CF883641
:10167000B1F2982F9F7D95549330E0F08336A1F11D
:101680008337C1F1833509F063C02801F2E04F0EC2
:10169000511CF801C080D180692D70E036FC02C079
:1016A0006FEF7FEFC6010E949D0C4C01689437F8E4
:1016B00082010AC00C5F1F4FFFE3F98388248394E3
:1016C000912C6501E89437F833FE2DC0522C81141B
:1016D000910471F5552009F468CFB70180E290E0DC
:1016E0000E94B30C5A94F6CFF801808189830E5F73
:1016F0001F4FE4CF2801F2E04F0E511CF801C080CB
:10170000D180692D70E036FC02C06FEF7FEFC6011B
:101710000E94A80C4C018201D5CFB70180E290E075
:101720000E94B30C2A942814190409F0B0F7CECF04
:10173000F60137FC859137FE81916F01B70190E08A
:101740000E94B30C51105A94F1E08F1A9108BFCF48
:10175000843619F0893609F077C0F80137FE6BC07E
:1017600060817181828193810C5F1F4FF32DFF7621
:101770003F2E97FF09C090958095709561957F4F9A
:101780008F4F9F4F689437F82AE030E0A5010E9400
:10179000E30CC82ECA188C2C432C36FE0CC0E894DF
:1017A00040F8C91440F434FE05C032FC03C0F32DE8
:1017B000FE7E4F2E892C44FE95C0FE01EC0DF11DDE
:1017C0008081803309F087C0242D297E422E842D0C
:1017D0008870582E43FC95C040FE8FC09C2C82140C
:1017E00018F42C0C922C981844FE91C0B70180E399
:1017F00090E00E94B30C42FE09C088E790E041FEF1
:1018000002C088E590E0B7010E94B30CC91408F447
:101810008AC0CA94D12C9FEFC91AD90ACA0CDB1C02
:10182000F60182916F01B70190E00E94B30CAC14F5
:10183000BD04B1F74FCF60817181072E000C880B7A
:10184000990B0E5F1F4F92CFD32CE894D4F82AE067
:1018500030E0853739F1232D297FD22E8F3601F1E3
:1018600048F48835A9F0F701868197812B96E2E14B
:101870000C945D0D803749F08837A9F7D4FE02C07B
:101880006894D2F820E130E00DC06894D4F8F6CF27
:1018900034FE03C0822F8660D82E20E132E002C0E1
:1018A00028E030E0F801D7FE0FC0608171818281AD
:1018B00093810C5F1F4FA5010E94E30CC82ECA182C
:1018C0003D2CE89437F867CF6081718190E080E02B
:1018D0000E5F1F4FF0CF42FC02C0839478CF8394F9
:1018E000839475CF842D867809F471CFF6CFB70134
:1018F00080E290E00E94B30C83948214C0F3512CD8
:1019000073CF522C5818821408F46ECFF8CF842D60
:10191000867809F47BCF8BE241FE80E247FC8DE2C2
:10192000B70190E071CFB70180E390E00E94B30C63
:101930009A946CCF8FEF9FEF99CFFC010590615087
:1019400070400110D8F7809590958E0F9F1F0895D5
:10195000FC016150704001900110D8F7809590957E
:101960008E0F9F1F08950F931F93CF93DF93182F10
:10197000092FEB018B8181FD09C01FEF0FEF812F34
:10198000902FDF91CF911F910F91089582FF14C086
:101990002E813F818C819D81281739073CF4E88195
:1019A000F981CF0101969983888310838E819F816D
:1019B00001969F838E83E3CFE885F985812F099572
:1019C000892BA1F3DACFFA01AA27283051F120316F
:1019D00081F1E8946F936E7F6E5F7F4F8F4F9F4FC3
:1019E000AF4FB1E03ED0B4E03CD0670F781F891F05
:1019F0009A1FA11D680F791F8A1F911DA11D6A0FD3
:101A0000711D811D911DA11D20D009F468943F9185
:101A10002AE0269F11243019305D3193DEF6CF0184
:101A20000895462F4770405D4193B3E00FD0C9F74A
:101A3000F6CF462F4F70405D4A3318F0495D31FDB7
:101A40004052419302D0A9F7EACFB4E0A69597950A
:101A5000879577956795BA95C9F7009761057105E0
:101A600008959B01AC010A2E06945795479537952A
:101A70002795BA95C9F7620F731F841F951FA01D84
:101A800008952F923F924F925F926F927F928F9222
:101A90009F92AF92BF92CF92DF92EF92FF920F93FD
:101AA0001F93CF93DF93CDB7DEB7CA1BDB0B0FB607
:101AB000F894DEBF0FBECDBF09942A8839884888C4
:101AC0005F846E847D848C849B84AA84B984C8845A
:101AD000DF80EE80FD800C811B81AA81B981CE0F51
:101AE000D11D0FB6F894DEBF0FBECDBFED01089536
:041AF000F894FFCF98
:101AF4008003FFFE050403FE008003FFFE050403CC
:101B0400FE0080FFFFFE0000006703800001020367
:101B1400040500000000002B018B00B8007801E9E7
:101B240000C700DB00000000006F024602E502A9C6
:101B340001B502EF01B301BC02B4029002E20385D5
:101B4400020C02B601DE02CE02CA02A701000000A6
:101B5400007B0354656D707265617475726500482D
:101B6400756D6964697479004C69676874004361D0
:101B740072626F6E2044696F78696465004F78798A
:101B840067656E6174696F6E004C697A6172640096
:101B9400547572746C6500536E616B6500537069A3
:101BA400646572004D6F757365000D0A0053454EF0
:101BB400443A20537069656365733A2000207C20A1
:101BC4002053656E736F723A2000207C202056618A
:101BD4006C75653A20005375627363726970746939
:101BE4006F6E206D6573736167652073656E742E07
:101BF400200A00556E737562736372697074696F3D
:101C04006E206D6573736167652073656E742E2035
:101C14000A00416464207375627363726970746945
:101C24006F6E206D6573736167652073656E742EC6
:101C3400200A002563256325632563256325630046
:101C440052454349455645443A2053706965636596
:041C5400733A2000BF
:00000001FF
